:020000040800F2
:100000009811002045010008C1230008A11500082F
:10001000BD230008BB0A0008712C00080000000086
:10002000000000000000000000000000FD270008A4
:10003000BF0A000800000000C3230008E9280008E8
:100040005F0100085F0100085F0100085F01000810
:100050005F0100085F0100085F0100085F01000800
:100060005F0100085F0100085F0100085F010008F0
:100070005F0100085F0100085F0100085F010008E0
:100080005F0100085F0100085F0100085F010008D0
:100090005F0100085F0100085F0100085F010008C0
:1000A0005F0100085F0100085F0100085F010008B0
:1000B0005F0100085F0100085F0100085F010008A0
:1000C0005F0100085F0100085F0100085F01000890
:1000D0005F0100085F0100085F0100085F01000880
:1000E0005F0100085F0100085F0100085F01000870
:1000F0005F0100085F0100085F0100085F01000860
:100100005F0100085F0100085F0100085F0100084F
:100110005F0100085F0100085F0100085F0100083F
:100120005F0100085F0100085F0100085F0100082F
:10013000DFF80CD000F050FB00480047BD35000848
:10014000981100200648804706480047FEE7FEE772
:10015000FEE7FEE7FEE7FEE7FEE7FEE7FEE7FEE777
:100160006129000831010008D2B201E000F8012B3A
:10017000491EFBD270470022F6E710B513460A4627
:1001800004461946FFF7F0FF204610BD80EA010241
:1001900010B502F00043400022D04A001FD0010EEB
:1001A00001EB1261C0F35600C2F3560240F40000A6
:1001B00042F40002A0FB022000047F39140400D0A6
:1001C000401C50EA124001D44000491EC2B20C0645
:1001D00004EBD010401C4008802A02D003E000202D
:1001E00010BD20F00100002900DA0020184310BDE6
:1001F00030B480EA010202F0004530F0004221F004
:10020000004013D090B1C30DD40DC2F31601C0F35A
:100210001600E41A41F4000140F400027D349142DA
:1002200001D3641C00E04900002C02DA30BC00203D
:1002300070474FF400000023914201D3891A034311
:1002400040084FEA4101F7D151B1914202D14FF03C
:10025000004105E002D24FF0010101E06FF0010121
:1002600003EBC450284430BC00F04BB92DE9FE4FDD
:1002700081EA030404F0004421F0004100944FF0AF
:10028000000B23F0004350EA01045ED052EA03045D
:100290005BD0C3F30A54C1F30A552C44A4F2F334DF
:1002A0000194A0FB0254C1F3130141F48011C3F384
:1002B000130343F4801301FB024400FB034E840A42
:1002C000970A44EA815447EA8357A4FB07680295DA
:1002D0008D0A05FB07854FEA932C04FB0C54270578
:1002E000029D4FEA065847EA1637B5EB08056EEB54
:1002F000070C870E920E47EA811742EA8312A7FB8A
:100300000201B6EB0B0164EB00042B0D43EA0C3346
:100310005E1844EB1C50DA465146E7FB0201C5F378
:1003200013044FEA0B3343EA14534FEA0432019C9F
:1003300043EA0603A4F10C040294009CCDE900B446
:1003400000F025F903B0BDE8F08F00200146F9E781
:100350002DE9F04D81EA030404F0004B21F0004543
:1003600014464FF0000A23F0004150EA050220D065
:1003700054EA01021DD0C5F30A570246C5F3130320
:10038000C1F31300C1F30A5640F4801543F48013FF
:10039000A7EB0608101BD64608F2FD3873EB0500E4
:1003A00002D308F1010801E092185B41B8F1000F97
:1003B00003DA00200146BDE8F08D00204FF48011E3
:1003C000064684460EE0171B73EB050705D3121B88
:1003D00063EB050306434CEA010C49084FEA300081
:1003E00092185B4150EA0107EDD152EA030012D0A6
:1003F00082EA040083EA0501084305D0101BAB41E3
:1004000006D20122002306E000224FF0004302E062
:100410006FF0010253101AEB06004CEB085110EB81
:100420000A0041EB0B01BDE8F04D00F0A1B89623A6
:100430000022114600F06EB800F0004230F000409B
:100440000AD0C10D01F56071C0F3160042EA0151F6
:10045000C208400711437047002001467047000062
:10046000002801DBC0F10040002901DBC1F100419F
:100470008142704730B50B460146002020220124FE
:1004800009E021FA02F59D4205D303FA02F5491B62
:1004900004FA02F52844151EA2F10102F1DC30BD78
:1004A0002DE9F05F0546002092469B4688460646A9
:1004B000814640241BE0284641464746224600F03C
:1004C000ACF953465A46C01A914110D3114618460A
:1004D000224600F093F92D1A67EB01084F46224699
:1004E0000120002100F08AF917EB00094E41201E7F
:1004F000A4F10104DFDC484631462A464346BDE804
:10050000F09F0029A8BF7047401C490008BF20F099
:100510000100704710B4B0FA80FC00FA0CF050EA09
:10052000010404BF10BC704749B1CCF1200421FA8A
:1005300004F411FA0CF118BF012121430843A3EB85
:100540000C01CB1D4FEA00614FEA102042BF002092
:1005500010BC704700EBC35010440029A4BF10BC6E
:100560007047401C490008BF20F0010010BC7047D4
:1005700010B5141E73F1000408DA401C41F10001AB
:1005800092185B411A4301D120F0010010BD2DE902
:10059000F04D92469B4611B1B1FA81F202E0B0FAF9
:1005A00080F22032904600F029F904460F4640EAD6
:1005B0000A0041EA0B0153465A46084313D011463C
:1005C00053EA010019D0C8F14002504600F025F965
:1005D00005460E4650465946424600F00FF908437C
:1005E00005D0012004E020463946BDE8F08D00200A
:1005F000054346EAE0762C4337430A986305E40A4C
:10060000A0EB08000022FD0A44EA47540A3002D554
:1006100000200146E9E7010510196941DDE90845B7
:1006200000196941BDE8F04DA2E72DE9FE4F804673
:1006300081EA0300C00F0C46009021F0004123F036
:100640000045B8EB0200A94105D24046214690463C
:100650001C460B46024623F00040104347D0270DAE
:10066000C7F30A00C3F30A510290401A01904028D0
:100670006BDAC3F3130040F4801B0098924620B15C
:100680000023D2EB030A63EB0B0B01985946C0F130
:100690004002504600F0B2F806460D465046594614
:1006A000019A00F0CAF810EB08006141002487EAC3
:1006B000115284EAE7731A4340D0009A62B3019A58
:1006C000012A4FEA075215DC001B61EB02014FF0D3
:1006D000004202EA0752CDE90042001C41F58011B8
:1006E00032462B46FFF753FF03B0BDE8F08F40467C
:1006F0002146F9E7001B61EB0201001C41F5801364
:1007000000185B412018A2F5001747EB030140EAEF
:10071000D570B6196D4111E06D084FEA360645EA0D
:10072000C0754FEA0752001B61EB0201001C41F546
:10073000801149084FEA30000019514132462B46DA
:1007400003B0BDE8F04FFFF713BF0098012240004F
:100750000023D0EB020263EBE073009821464FEADE
:10076000E074B8EB000061EB0401E9E783F00043BB
:100770005BE781F0004158E7C1F30A52C1F313016E
:1007800040F2FF3341F480119A4202DA0020014620
:10079000704740F233439A42A2F2334202DC5242A3
:1007A00000F03BB800F02AB830B5041E71F1000427
:1007B00004DB4FF00044404264EB0101141E73F16E
:1007C000000405DB1C464FF00043524263EB040378
:1007D000994208BF904230BD064C074D06E0E068E4
:1007E00040F0010394E8070098471034AC42F6D378
:1007F000FFF7A2FC6475000884750008202A04DB5A
:10080000203A00FA02F1002070479140C2F1200323
:1008100020FA03F3194390407047202A04DB203A62
:1008200021FA02F00021704721FA02F3D040C2F110
:1008300020029140084319467047202A06DBCB1757
:10084000203A41FA02F043EAE07306E041FA02F38B
:10085000D040C2F12002914008431946704721B1AF
:10086000826842F00102826003E0826822F00102A5
:100870008260704700B585B00121480201F018FE82
:100880004FF4004001F0F8FD164800F02DF800206C
:1008900000908DF804008DF805004FF46020029060
:1008A0000020039001208DF8100069460D4800F0EB
:1008B0006BF801210B48FFF7D2FF0A4800F0E8F877
:1008C00000BF084800F055F80028FAD1054800F0AC
:1008D000EFF800BF034800F035F80028FAD105B062
:1008E00000BD00000024014010B5044612488442B7
:1008F00008D10121401501F0EBFD0021601501F048
:10090000E7FD17E00D48844208D10121001501F0F0
:10091000DFFD0021201501F0DBFD0BE008488442DB
:1009200008D10121C80301F0D3FD00214FF400409C
:1009300001F0CEFD10BD0000002401400028014060
:10094000003C0140014600208A6802F004020AB11E
:10095000012000E0002070470146C86C80B270475B
:100960000246002013680B400BB1012000E000207C
:100970007047014600208A6802F008020AB101208F
:1009800000E000207047000030B502460020002340
:1009900050680F4C20400D790C6844EA0524204330
:1009A000506090680B4C2040D1E902542C434D79A3
:1009B00044EA450420439060D06A20F470000C7C27
:1009C000641EE4B2234340EA0350D06230BD00000D
:1009D000FFFEF0FFFDF7F1FFF0B504460D460020E5
:1009E0000021092D11DDE068A5F10A0606EB460796
:1009F000072606FA07F18843A5F10A0606EB460624
:100A000003FA06F10843E0600CE0206905EB4507B6
:100A1000072606FA07F1884305EB450603FA06F1B7
:100A200008432061072A0FDA606B561E06EB860723
:100A30001F2606FA07F18843561E06EB860605FABE
:100A400006F10843606322E00D2A0FDA206BD61FFF
:100A500006EB86071F2606FA07F18843D61F06EB2A
:100A6000860605FA06F10843206310E0E06AA2F169
:100A70000D0606EB86071F2606FA07F18843A2F14A
:100A80000D0606EB860605FA06F10843E062F0BDA6
:100A9000816841F008018160704721B1826842F4A9
:100AA000A002826003E0826822F4A00282607047A4
:100AB000816841F004018160704700BFFEE7704724
:100AC00070B51E2414254FF6FF71002001F060FC64
:100AD000144801F067FC14A221460A2000F056FEDB
:100AE0001048C0881430204484B2124801F05AFCE7
:100AF00011A221460A2000F049FE0E48C088143099
:100B0000204484B210A221460A2000F00BFE0948BE
:100B1000C0881430204484B20EA221460A2000F07E
:100B200035FE70BD08010020D7D4B6AFBBAFD1A74A
:100B3000D4BA000000010020B5E7D7D3D0C5CFA2BA
:100B400032333031B0E00000383230373233787829
:100B500078780000C4FAB5C4D0D5C3FB000000000B
:100B60007CB500F017FD3E490968401A3D493E4AF0
:100B7000127851F82210884270D300F00BFD3849EA
:100B80000860694601A801F0F7FB384801F00AFC4B
:100B9000BDF8000001F00CFC3548008886B2002446
:100BA00014E03448008886420BDA304880883044AC
:100BB000002806DD3048025D30480188304600F0EC
:100BC00065FD2A488088304486B2641C2A48005D4E
:100BD0000028E6D12A48B0F90000254908802848B5
:100BE0000088401F00B2264908804FF4784001F089
:100BF000DFFB2348008885B2002414E01D480088EC
:100C000085420BDA194880882844002806DD1A48F6
:100C1000025D1A480188284600F038FD1348808894
:100C2000284485B2641C1448005D0028E6D1BDF854
:100C3000040001F0BDFB1248B0F900001149098819
:100C400009B24942884209DA0A48008800B20C49D0
:100C500008800846B0F90000054908807CBD000006
:100C6000400000201837000836000020080100204E
:100C70003A000020E800002024370008440000204B
:100C8000380000203C0000202DE9F04389B01026F8
:100C900005274FF00208C0480088123885B24FF08F
:100CA0001E09BE480078F0B1BD48007803281AD16B
:100CB000BC480078401C032190FBF1F201FB1200BC
:100CC000B84908700120B84908700020B34908707D
:100CD0000323B4480278521CB4A1BA4801F0DAFFE9
:100CE000B84801F0C3FEB048007830B9AC4800788D
:100CF000032802D109B0BDE8F083A9480078032891
:100D00007ED1A5480388B04802880021084600F03B
:100D10005BFC4FF6FF71002001F03AFB2324A14851
:100D2000007800285AD1A94801F03CFBA848214688
:100D30000268052000F02AFDA648C0881E30204425
:100D400084B2A24801F02EFBA34821460268052088
:100D500000F01CFD04F1120084B2A0482146026894
:100D6000052000F013FD04F1120084B29C482146D6
:100D70000268052000F00AFD04F1120084B29948CF
:100D800021460268052000F001FD04F1120084B242
:100D9000954821460268052000F0F8FC04F1120095
:100DA00084B2924821460268052000F0EFFC04F16D
:100DB000120084B28E4821460268052000F0E6FC4D
:100DC000032378480278521C8AA1684601F062FF2A
:100DD0006A462946052000F0D9FCD8E07148007821
:100DE000012869D1794801F0DDFA89482146026875
:100DF000052000F0CBFC04F1140084B2854800E02B
:100E0000C8E021460268052000F0C0FC04F1120091
:100E100084B2814821460268052000F0B7FC04F145
:100E2000120084B27D4821460268052000F0AEFC25
:100E300004F1120084B27A4821460268052000F0CD
:100E4000A5FC04F1120084B2764821460268052010
:100E500000F09CFC04F1120084B273482146026841
:100E6000052000F093FC04F1120084B26F48214683
:100E70000268052000F08AFC04F1120084B26C487C
:100E800021460268052000F081FC04F1120084B2C2
:100E9000684821460268052000F078FC0323414899
:100EA0000278521C53A1684601F0F4FE6A462946B6
:100EB000052000F06BFC6AE03A480078022866D111
:100EC000424801F06FFA524821460268052000F0BE
:100ED0005DFC04F1140084B25748214602680520E5
:100EE00000F054FC04F1120084B254482146026818
:100EF000052000F04BFC04F1120084B2504821465A
:100F00000268052000F042FC04F1120084B24D4852
:100F100021460268052000F039FC04F1120084B279
:100F2000494821460268052000F030FC04F1120017
:100F300084B2464821460268052000F027FC04F1EF
:100F4000120084B2424821460268052000F01EFCCF
:100F500004F1120084B23F4821460268052000F0E7
:100F600015FC04F1120084B23B48214602680520BA
:100F700000F00CFC03230B480278521C37A1684692
:100F800001F088FE6A462946052000F0FFFB00209C
:100F90000549087000BFADE6EA0000202A000020E5
:100FA00028000020C4000020C50000205265706F9A
:100FB000727420506167653A2025642F25640D0AFC
:100FC0000000000018010020E8000020F8000020C8
:100FD00048000020000100205C000020600000208C
:100FE00064000020680000206C00002070000020D9
:100FF00074000020506167652025642F2564202837
:101000004B455931204E6578742D3E290000000073
:10101000780000207C000020800000208400002058
:10102000880000208C000020900000209400002008
:10103000980000209C000020A0000020A4000020B8
:10104000A8000020AC000020B0000020B400002068
:10105000B8000020BC000020C0000020506167657F
:101060002025642F256420284B4559312052657373
:10107000746172742900000010B5164801F092F9ED
:101080004FF6FF711F2001F083F91348048804EB29
:10109000D4704010143881B210A20A2000F076FB00
:1010A000124801F07FF90C48048804EBD47040101A
:1010B0000A3081B20EA20A2000F068FB06480488BC
:1010C00004EBD47040101E3081B20DA20A2000F053
:1010D0005DFB10BD00010020EA000020B0B8C0FD9B
:1010E000343A20CFD4CABECDBCC6AC00F800002034
:1010F00028B4CBB9A6C4DCB4FDCAB5CFD62900004C
:10110000C7EBD7BCB1B8CDBCC6ACCAFDBEDDB2A280
:10111000B1E0D0B4BBE6D6C6BAAFCAFD000000004D
:1011200038B53D48007800B138BD00F033FA3B498E
:101130000968401A64286DD300F02CFA374908601A
:1011400037480088002852DD3648008800284EDDE8
:1011500035480078062190FBF1F201FB120033497B
:1011600031F81040204601F023F9012000902D486D
:1011700003882B4802882E4801882E48008800F0FA
:10118000AFFB27480088022803DD26480088022894
:1011900013DC012020490870274801F003F94FF6BD
:1011A000FF71002001F0F4F824480088143881B25F
:1011B00023A20A2000F0B6FAB6E71E480088401CB9
:1011C0001C4908801A480088401C194908801448A6
:1011D0000088801E1249088012480088801E11492C
:1011E000088011480078401C0F49087012E0012067
:1011F00009490870104801F0D5F84FF6FF7100203A
:1012000001F0C6F80D480088143881B212A20A20F5
:1012100000F088FA00BF87E7D4000020D00000204B
:10122000CA000020CC000020CE0000202E3700088D
:10123000C8000020C6000020F8000020EA000020BE
:1012400043617365203520446F6E652E20507265B2
:101250007373204B322E00004361736520352046A6
:10126000696E69736865642E0000000051B18200E8
:10127000A2F1C042126842F001038200A2F1C04212
:10128000136009E08200A2F1C0421268034B1A40C9
:101290008300A3F1C0431A6070470000FEFF0F00F7
:1012A000D0E901121143C268114302691143426936
:1012B000114382691143C2691143026A1143426AB0
:1012C0001143826A1143C26A1143026B11430268DF
:1012D0009200A2F1C0421160816808290BD1016817
:1012E0008900A1F1C041096841F04002016889000C
:1012F000A1F1C0410A60416B0968426B526841EA42
:101300000211426B926841EA0221426B928941EAE2
:101310000241426B128A41EA0251426B127D41EA5C
:101320000261426B926911430268521C9200A2F161
:10133000C0421160C16AB1F5804F1BD1816B096851
:10134000826B526841EA0211826B926841EA022183
:10135000826B128A41EA0251826B127D41EA02617C
:10136000826B9269114302689200A2F1C042C2F8F6
:10137000041107E06FF0704201688900A1F1C041DB
:10138000C1F804217047000008B50121152001F0C3
:101390008FF80120ADF8000048208DF80300694661
:1013A0000C4800F01BF84FF40050ADF80000482046
:1013B0008DF803006946084800F010F80220ADF8E7
:1013C000000000208DF803006946024800F006F88E
:1013D00008BD000000080140001001402DE9F04167
:1013E000024600250026002000230024002791F853
:1013F00003C00CF00F0591F803C00CF0100CBCF109
:10140000000F03D091F802C04CEA050591F800C026
:10141000BCF1000F31D0146800202BE04FF0010C1C
:101420000CFA00F3B1F800C00CEA03069E4220D18A
:1014300083004FF00F0C0CFA03F7BC4305FA03FCD2
:101440004CEA040491F803C0BCF1280F06D14FF018
:10145000010C0CFA00FCC2F814C00AE091F803C0B9
:10146000BCF1480F05D14FF0010C0CFA00FCC2F89A
:1014700010C0401C0828D1D31460B1F800C0BCF1E2
:10148000FF0F34DD546800202EE000F1080C4FF00F
:10149000010808FA0CF3B1F800C00CEA03069E42FA
:1014A00021D183004FF00F0C0CFA03F7BC4305FA6F
:1014B00003FC4CEA040491F803C0BCF1280F05D1E9
:1014C00000F1080C08FA0CF8C2F8148091F803C077
:1014D000BCF1480F07D100F1080C4FF0010808FAE1
:1014E0000CF8C2F81080401C0828CED35460BDE828
:1014F000F0810246002093680B400BB1012000E010
:101500000020704741617047016170472DE9F0414B
:1015100080460C461048007820B901F087F8012079
:101520000D4908702512E6B2A5F1A101C1EB011227
:1015300002EB411106EB4101A1390802C11700EB92
:101540005171CF10054839182022404601F046F865
:101550000020BDE8F08100001001002000301800DC
:1015600010B504460523012221460948FFF734FA45
:1015700001210748FFF791FA00BF02210448FFF755
:10158000EFF90028F9D00248FFF7E6F910BD000096
:10159000002401400148006870470000D800002086
:1015A00000BFFEE710B504462CB14FF4805105484A
:1015B000FFF7A8FF04E04FF480510248FFF7A4FFB3
:1015C00010BD0000001401402DE9F04106460F4611
:1015D00014461D462B4622463946304600F05CFB39
:1015E00004FB05F00249098800F0F5F9BDE8F08137
:1015F000F600002001B502E00098401E009000981F
:101600000028F9D108BD00002DE9F04389B08046DB
:101610008946174610231A464946404600F03CFBCF
:101620002C2000F009FE394601A8FFF76FFF0024C7
:1016300022E001A810F814604FF6FF7000EA0626B9
:10164000012000EB440001A9085C064300250FE0DF
:101650004FF400402841304020B10A48008800F093
:10166000EFFD03E00848008800F0EAFD681CC5B201
:10167000102DEDDB601CC4B2102CDADB09B0BDE824
:10168000F0830000F4000020F60000202DE9F05F58
:10169000804689461646A6F120001FFA80FA1E49A8
:1016A000096889881C4A1268D28801FB02F0C117B8
:1016B00000EB5171C1F3C7071748006800680AFBC7
:1016C000070B15480068C38813480068828849469C
:1016D000404600F0E1FA2C2000F0AEFD002416E0B8
:1016E000002510E01BF8040080212941084020B1AA
:1016F0000A48008800F0A4FD03E00948008800F0D3
:101700009FFD681CC5B2082DECDB601CC4B2BC4256
:10171000E6DBBDE8F09F0000F0000020F4000020B0
:10172000F600002070B505460E46144624E0284613
:10173000134909688988084412490988884205DDE7
:1017400000250F480068C088304486B230460C49F6
:101750000968C98808440C490988884201DD0025C8
:101760000026227831462846FFF790FF641C044883
:1017700000688088284485B220780028D7D170BDC1
:10178000F0000020E8000020EA0000202DE9F041F0
:1017900005460E46144648E020787E2825DC28467B
:1017A000244909688988084423490988884205DD55
:1017B000002520480068C088304486B230461D4964
:1017C0000968C98808441D490988884201DD002547
:1017D0000026227831462846FFF758FF1548006852
:1017E0008088284485B2641C1FE0284610301249C6
:1017F0000988884203DD002506F1100086B23046D4
:1018000010300E490988884201DD0025002627880E
:10181000380200EB272087B23A4631462846FFF7C8
:10182000F3FE05F1100085B2A41C20780028B3D186
:10183000BDE8F081F0000020E8000020EA00002070
:101840002DE9FF4F83B081464FF0000AD34605983B
:10185000A0EB090504990698461ACDF8049004985F
:101860000090002D01DD012705E00DB9002702E001
:101870004FF0FF376D42002E02DD4FF0010806E009
:1018800016B94FF0000802E04FF0FF387642B5423B
:1018900001DD2C4600E034460020029019E0DDE92D
:1018A000001000F0ADFCAA44B344A24505DDAAEB4C
:1018B000040A0198384480B20190A34505DDABEBE2
:1018C000040B0098404480B200900298401C80B203
:1018D0000290611C02988842E1DD07B0BDE8F08FFC
:1018E0002DE9F04104460D4616461F46DDF81880E6
:1018F000B8F1000F0CD03B4632462946204600F096
:10190000CBF906FB07F01749098800F064F827E0D7
:10191000A019401E82B22B4629462046FFF790FFB1
:10192000E819401E83B2A019401E82B2E819401E79
:1019300081B22046FFF784FFE819401E83B2224699
:1019400029462046FFF77CFFE919491E8BB2A119F1
:10195000491E8AB2A119491E88B22946FFF770FFB5
:10196000BDE8F081F400002000B597B03C2108A844
:10197000FEF701FC1C2101A8FEF7FDFB0121080276
:1019800000F086FD0120019004200390800607905E
:10199000002002900490059006900890099008207D
:1019A0000A9010200B9000200C900E900F90109039
:1019B0004FF480501190002012901390149001A8C1
:1019C0001590169008A8FFF76BFC01210020FFF787
:1019D0004DFC17B000BD70B504460D4600262C2006
:1019E00000F02AFC00BF03E0284600F029FC761C2A
:1019F000A642F9D370BD000008B50121602000F0B7
:101A000057FD03208DF8020018208DF803004FF4D5
:101A10008040ADF8000069465B48FFF7DFFC4FF4FB
:101A20000040ADF8000069465748FFF7D7FC012099
:101A3000ADF8000069465448FFF7D0FC0220ADF82D
:101A4000000069465048FFF7C9FC8020ADF800004F
:101A500069464E48FFF7C2FC4FF48070ADF80000B5
:101A600069464A48FFF7BAFC4FF40070ADF8000031
:101A700069464648FFF7B2FC4FF48060ADF80000BD
:101A800069464248FFF7AAFC4FF40060ADF8000039
:101A900069463E48FFF7A2FC4FF48050ADF80000C5
:101AA00069463A48FFF79AFC4FF40050ADF8000041
:101AB00069463648FFF792FC4FF48040ADF80000CD
:101AC00069463248FFF78AFC4FF40040ADF8000049
:101AD00069462E48FFF782FC4FF48070ADF8000095
:101AE00069462948FFF77AFC4FF40070ADF8000012
:101AF00069462548FFF772FC4FF48060ADF800009E
:101B000069462148FFF76AFC03208DF8020018207F
:101B10008DF803001020ADF8000069461A48FFF761
:101B20005DFC2020ADF8000069461748FFF756FC21
:101B30008020ADF8000069461348FFF74FFC4FF4D2
:101B40000060ADF8000069460F48FFF747FC102021
:101B50008DF8030003208DF802000220ADF800008C
:101B600069460A48FFF73AFC10208DF8030003206D
:101B70008DF802004FF48050ADF80000694602482D
:101B8000FFF72CFC08BD00000014014000180140C4
:101B900010B50446072C00DD10BD31480470204606
:101BA00004EBD0714910A4EB410139B9F0202D4963
:101BB00008804FF4A0702C49088006E04FF4A07014
:101BC00028490880F02028490880362000F034FB9E
:101BD0002648008849F24131884205D1082141EA6E
:101BE000441000F02DFB0AE02048008848F25251D2
:101BF000884204D1002141EA441000F021FB2A2050
:101C000000F01AFB002000F01BFB002000F018FB86
:101C100014490988491EC1F3072000F011FB11493E
:101C20000978491EC8B200F00BFB2B2000F004FB22
:101C3000002000F005FB002000F002FB0A490988A3
:101C4000491EC1F3072000F0FBFA07490978491E35
:101C5000C8B200F0F5FA2C2000F0EEFA00BF9BE7C6
:101C6000EC000020E8000020EA000020EE00002048
:101C700010B5FFF7C1FEFFF777FE0120FFF792FCDA
:101C800000F0A0FA00F038F802480078FFF780FF73
:101C900010BD0000EC0000202DE9F04104460D4687
:101CA00016461F462A2000F0C7FA201200F0C8FA94
:101CB000E0B200F0C5FAA119491EC1F30F2000F0EF
:101CC000BFFAA119491EC8B200F0BAFA2B2000F0E1
:101CD000B3FA281200F0B4FAE8B200F0B1FAE91948
:101CE000491EC1F30F2000F0ABFAE919491EC8B232
:101CF00000F0A6FABDE8F08110B500F025FAFE4923
:101D000008800846008849F2413188427ED1CF20C0
:101D100000F092FA002000F093FA812000F090FA8F
:101D2000302000F08DFAED2000F086FA642000F0FB
:101D300087FA032000F084FA122000F081FA812053
:101D400000F07EFAE82000F077FA852000F078FABB
:101D5000102000F075FA782000F072FACB2000F025
:101D60006BFA392000F06CFA2C2000F069FA0020A0
:101D700000F066FA342000F063FA022000F060FA06
:101D8000F72000F059FA202000F05AFAEA2000F07B
:101D900053FA002000F054FA002000F051FAB1206C
:101DA00000F04AFA002000F04BFA1B2000F048FA3D
:101DB000B62000F041FA0A2000F042FAA22000F01A
:101DC0003FFAC02000F038FA352000F039FAC1207F
:101DD00000F032FA112000F033FAC52000F02CFA9E
:101DE000452000F02DFA452000F02AFAC72000F027
:101DF00023FAA22000F024FAF22000F01DFA0020BD
:101E000000F01EFA262000F017FA00E096E001200C
:101E100000F016FAE02000F00FFA0F2000F010FAA0
:101E2000262000F00DFA242000F00AFA0B2000F022
:101E300007FA0E2000F004FA092000F001FA5420FD
:101E400000F0FEF9A82000F0FBF9462000F0F8F9B8
:101E50000C2000F0F5F9172000F0F2F9092000F04D
:101E6000EFF90F2000F0ECF9072000F0E9F900206D
:101E700000F0E6F9E12000F0DFF9002000F0E0F9E1
:101E8000192000F0DDF91B2000F0DAF9042000F041
:101E9000D7F9102000F0D4F9072000F0D1F92A205A
:101EA00000F0CEF9472000F0CBF9392000F0C8F956
:101EB000032000F0C5F9062000F0C2F9062000F06A
:101EC000BFF9302000F0BCF9382000F0B9F90F203C
:101ED00000F0B6F9362000F0AFF9C82000F0B0F9F4
:101EE0002A2000F0A9F9002000F0AAF9002000F053
:101EF000A7F9002000F0A4F9EF2000F0A1F92B20B1
:101F000000F09AF9002000F09BF9002000F098F909
:101F1000012000F095F93F2000F092F93A2000F0FE
:101F20008BF9552000F08CF9112000F085F97348E9
:101F3000FFF760FB292000F07FF901E16E4800887F
:101F400048F252518842F8D1CF2000F075F90020B4
:101F500000F076F9C12000F073F9302000F070F93C
:101F6000ED2000F069F9642000F06AF9032000F028
:101F700067F9122000F064F9812000F061F9E8208F
:101F800000F05AF9852000F05BF9102000F058F9B4
:101F9000782000F055F9CB2000F04EF9392000F000
:101FA0004FF92C2000F04CF9002000F049F93420C2
:101FB00000F046F9022000F043F9F72000F03CF968
:101FC000202000F03DF9EA2000F036F9002000F072
:101FD00037F9002000F034F9C02000F02DF921205D
:101FE00000F02EF9C12000F027F9112000F028F9A7
:101FF000C52000F021F92D2000F022F9332000F057
:102000001FF9362000F018F9002000F019F93A20E5
:1020100000F012F9552000F013F9B12000F00CF98E
:10202000002000F00DF9172000F00AF9B62000F0AA
:1020300003F90A2000F004F9A22000F001F9F620CB
:1020400000F0FAF8012000F0FBF8302000F0F8F87A
:10205000F22000F0F1F8002000F0F2F8262000F065
:10206000EBF8012000F0ECF8E02000F0E5F8D020DB
:1020700000F0E6F8002000F0E3F8022000F0E0F8BD
:10208000072000F0DDF80B2000F0DAF81A2000F04D
:10209000D7F8312000F0D4F8542000F0D1F84020D7
:1020A00000F0CEF8292000F0CBF8122000F0C8F89C
:1020B000122000F0C5F8122000F0C2F8172000F03E
:1020C000BFF8E12000F0B8F8D02000F0B9F8002007
:1020D00000F0B6F8022000F0B3F8072000F0B0F8E6
:1020E000052000F0ADF8252000F0AAF82D2000F022
:1020F000A7F8442004E00000EE000020FCBF02002E
:1021000000F09EF8452000F09BF81C2000F098F8A5
:10211000182000F095F8162000F092F81C2000F02E
:102120008FF81D2000F08CF8112000F085F805488C
:10213000FFF760FA292000F07FF82C2000F07CF8EF
:1021400010BD0000FCBF020010B50024042000F008
:1021500073F800BF1748008800BF1648008800F0D9
:102160002BF804464FF6FF7000EA042400F024F830
:10217000044348F25250844201D1204610BDD3207E
:1021800000F05AF800BF0B48008800BF09480088DB
:1021900000F012F804464FF6FF7000EA042400F045
:1021A0000BF8044349F24130844201D12046E5E76F
:1021B0000020E3E70000026001480088704700004B
:1021C0000000026010B502210748FFF79BF940F6B6
:1021D000FF20FFF70FFA02210348FFF795F940F6B9
:1021E000FF20FFF707FA10BD0018014070B5044644
:1021F0000D4601231A4629462046FFF74DFD70BDC6
:1022000070B505460C460948008885420CDA084836
:102210000088844208DA21462846FFF7E7FF054890
:1022200001880120FFF7D7FB70BD0000E800002007
:10223000EA000020F40000204FF0C0410880704701
:1022400001490880704700000000026070B5044634
:10225000364803883648028800210846FFF7B4F95B
:102260004FF6FF71002000F093F80020314908700C
:10227000062C59D2DFE804F0580306363D40FEF73D
:102280001FFC51E02C4800F08DF800202B490880FD
:10229000002507E0284880882849098808442749FC
:1022A00008806D1C2648405D0028F3D12048008836
:1022B00000B2244908800846B0F90000224908808D
:1022C000FFF768F921490860184A118801EBD172BB
:1022D0005210194BD88800EBD073A2EB63021C4B51
:1022E0001A8021E000201B49087001201A4908705B
:1022F0001AE0FEF7C1FE17E00020184908801849CF
:1023000008800B480088174908800848008816494B
:102310000880002015490870FFF73CF9144908604F
:1023200000201449087000BF00BF70BDEA00002003
:10233000E80000202A000020080100203C000020C6
:1023400024370008380000203A0000204000002018
:1023500044000020C4000020C5000020C60000206A
:10236000C8000020CA000020CC000020CE000020C1
:10237000D0000020D4000020034A12880280034AC3
:1023800012880A8070470000F4000020F600002048
:10239000024A1080024A118070470000F4000020B9
:1023A000F60000200149086070470000F00000209E
:1023B0000149088070470000F400002000BFFEE7DC
:1023C0007047704770B501212248FFF792F8044624
:1023D0004FF400512048FFF78CF8054644B91F48D8
:1023E0000078012804D1FFF7D5F81D49086010E0F6
:1023F000012C0ED11948007858B9FFF7CBF81849CD
:102400000968401A17490968884202D9012016490B
:1024100008701248047045B914480078012804D1A6
:10242000FFF7B8F81249086010E0012D0ED10F48EF
:10243000007858B9FFF7AEF80D490968401A094904
:102440000968884202D901200A49087007480570C6
:1024500070BD000000080140001001402C00002069
:10246000DC000020300000202A0000202D00002089
:10247000E00000202B00002001460020034A5068A5
:1024800020F44040084350607047000000100240B4
:1024900029B1064A52690243044B5A6104E0034AD7
:1024A00052698243014B5A6170470000001002409C
:1024B00029B1064A92690243044B9A6104E0034A37
:1024C00092698243014B9A617047000000100240FC
:1024D00029B1064AD2680243044BDA6004E0034A99
:1024E000D2688243014BDA6070470000001002405E
:1024F00030B500210022002400232D4D6D6805F029
:102500000C0121B1042905D0082923D105E0294D6A
:10251000056022E0274D05601FE0254D6D6805F43C
:102520007012234D6D6805F48034022505EB92424C
:102530001CB9214D554305600BE01D4D6D6805F438
:1025400000351DB11C4D5543056002E0194D554342
:10255000056002E0174D056000BF00BF144D6D68B7
:1025600005F0F0010909154D6B5C0568DD4045601B
:102570000F4D6D6805F4E061090A104D6B5C45680C
:10258000DD4085600A4D6D6805F46051C90A0B4D48
:102590006B5C4568DD40C560054D6D6805F44041E4
:1025A000890B074D6B5CC568B5FBF3F5056130BD64
:1025B0000010024000127A0000093D0014000020C3
:1025C0002400002021B1028842F04002028004E091
:1025D00002884FF6BF731A400280704770B50546F7
:1025E0000C46164601211048FEF78CFF032000F030
:1025F0007DF8C4F3074000F079F8C4F3072000F039
:1026000075F8E0B200F072F804E0FF2000F06EF818
:1026100028706D1C301EA6F101018EB2F5D101218A
:102620000148FEF771FF70BD0010014000B587B092
:1026300001210803FFF73CFF0121D420FFF738FFF9
:102640000120ADF8040003208DF8060010208DF85D
:10265000070001A92248FEF7C1FE2020ADF80400C2
:1026600018208DF8070001A91E48FEF7B7FE40208C
:10267000ADF8040001A91B48FEF7B0FE8020ADF8BC
:10268000040001A91748FEF7A9FE01211448FEF72E
:102690003BFF0020ADF808004FF48270ADF80A004F
:1026A0000020ADF80C000220ADF80E000120ADF8BE
:1026B00010004002ADF812000820ADF81400002010
:1026C000ADF816000720ADF8180002A9064800F082
:1026D00057F801210448FFF775FF07B000BD00005F
:1026E00000100140000801400030014010B50446D0
:1026F0004FF48050194908600AE018490868411EE3
:10270000164A116020B9002000F058F8C0B210BD80
:102710000221134800F026F80028EED02146104888
:1027200000F02CF84FF480500C4908600AE00B4987
:102730000868411E094A116020B9012000F03EF8E6
:10274000C0B2E4E70121064800F00CF80028EED002
:10275000034800F010F8C0B2D9E70000E400002000
:10276000003001400246002013890B400BB10120CC
:1027700000E00020704701468889704781817047DA
:1027800010B50022028802F441520B884C88234382
:102790008C882343CC8823430C8923434C892343CF
:1027A0008C892343CC8923431A430280838B4FF2C5
:1027B000FF74234083830B8A038210BD10B5044647
:1027C000214602A000F056FA002010BD3C3C2D46E8
:1027D0004C4153482D4552524F522D3E3E205350AE
:1027E0004920B5C8B4FDB3ACCAB1216572726F722D
:1027F000436F6465203D2025640A0000704710B5D2
:1028000000F002F810BD00000CB50020019000900F
:102810003348006840F480303149086000BF3048D8
:10282000006800F4003000900198401C019000986E
:1028300018B90198B0F5A06FF1D12948006800F4EB
:10284000003010B10120009001E0002000900098BD
:10285000012843D12348006840F010002149086056
:102860000846006820F0030008600846006840F051
:10287000020008601A4840681949486008464068E4
:1028800048600846406840F48060486008464068F8
:1028900020F47C1048600846406840F4E810486026
:1028A0000846006840F08070086000BF0C4800686F
:1028B00000F000700028F9D00948406820F00300BB
:1028C000074948600846406840F00200486000BF81
:1028D0000348406800F00C000828F9D10CBD000046
:1028E000001002400020024002480068401C0149DC
:1028F00008607047D800002030B5164800684FF4D3
:102900007A72B0FBF2F1B1F1807F01D301201DE0BA
:1029100021F07F40401E4FF0E022506150170F22FF
:10292000002807DA13071D0E0B4B00F00F04241FBD
:102930001D5503E013071C0E084B1C5400BF00205C
:102940004FF0E022906107201061002008B100BF25
:10295000FEE730BD0000002018ED00E000E400E0DC
:1029600010B51348006840F001001149086008469E
:102970004068104908400E494860084600680E4902
:1029800008400B4908600846006820F48020086071
:102990000846406820F4FE0048604FF41F0088603D
:1029A000FFF72DFF4FF000600449086010BD0000E4
:1029B000001002400000FFF8FFFFF6FE08ED00E007
:1029C00000B585B0012144F20400FFF771FD4FF41A
:1029D0000070ADF8100018208DF8130003208DF85A
:1029E000120004A91348FEF7F9FC4FF48060ADF81B
:1029F000100004208DF8130004A90E48FEF7EEFC29
:102A00004FF4E13000900020ADF80400ADF806006E
:102A1000ADF80800ADF80C000C20ADF80A006946CE
:102A2000054800F047F80121034800F02AF805B0F6
:102A300000BD0000000801400038014010B5044608
:102A400000BF8021084800F028F80028F9D021466E
:102A5000054800F09BF800BF4021034800F01DF836
:102A60000028F9D010BD00000038014010B5044620
:102A700003E014F8010BFFF7E1FF20780028F8D1FC
:102A800010BD21B1828942F40052828104E0828922
:102A90004DF6FF731A408281704702460020B1F55F
:102AA000007F00D100BF13880B400BB1012000E074
:102AB000002070472DE9F04786B005460E460024F9
:102AC000A24600BFA1460027B08900B100BF2F4633
:102AD0002C8A4CF6FF700440F08804432C82AC89A9
:102AE0004EF6F3100440B0883189084371890843D9
:102AF0000443AC81AC8A4FF6FF400440B0890443E4
:102B0000AC8201A8FFF7F4FC1F48874202D1DDF830
:102B100010A001E0DDF80CA0A88900F4004040B14D
:102B20000AEBCA0000EB0A1031684900B0FBF1F86B
:102B300007E00AEBCA0000EB0A1031688900B0FB1D
:102B4000F1F86420B8FBF0F004012009642101FBD6
:102B50001089A88900F4004040B1322000EBC90080
:102B6000B0FBF1F000F00700044308E0322000EB76
:102B700009106421B0FBF1F000F00F0004432C8138
:102B800006B0BDE8F087000000380140C1F308023C
:102B9000828070477FB50120FEF7E2FC2049088063
:102BA00008460088FDF743FC06461E49FDF720FB5A
:102BB00005461D49FDF7EAFA04461C492046FDF783
:102BC0004FFC03D200201A4908700BE01949204637
:102BD000FDF746FC03D201201549087002E00220EF
:102BE0001349087014480078022818D12046FDF7D0
:102BF00023FC05460E4611480D49097850F821007E
:102C00000B490978CDE90056CDE902100448028845
:102C10000BA1164800F03EF81448FFF727FF7FBDD0
:102C20003400002000F07F4533335340CDCC8C3F3F
:102C300036000020CDCC0C402800002018370008BA
:102C40004144433A2025642028252E326656292CFB
:102C5000205370656564204964783A2025642028F3
:102C6000256C75206D73290D0A00000018010020E5
:102C700000BFFEE70FB4054B10B503A9044A029844
:102C800000F0EEF810BC5DF814FB00009935000868
:102C9000140100200FB4084B10B504A902AA039830
:102CA00000F0DEF8044602A9002000F070FC204687
:102CB00010BC5DF814FB00008F35000802E008C866
:102CC000121F08C1002AFAD170477047002001E0A6
:102CD00001C1121F002AFBD1704700002DE9FF5FE0
:102CE00082B00021DDE90430020DDDF840B003437D
:102CF00018D044F61050A2F2FF3242431514119836
:102D000001281FD0A5EB0B00401C5FEA000A4FF022
:102D100000064E4FDFF83891B046504615D5CAF13F
:102D2000000413E0119801244AA3012801D16FEA9D
:102D30000B010298119AC0E90031C0E9024206B0C5
:102D4000BDE8F09FCBF10000DFE704460021404AD8
:102D5000491842EB0450CDE9001012E0E00707D01B
:102D600032463B4640464946FDF780FA8046894652
:102D700032463B4610461946FDF778FA06460F469E
:102D80006410002CEAD1DDE90401DDE90023BAF189
:102D9000000F06DAFDF76AFA42464B46FDF766FA7F
:102DA00005E0FDF7D5FA42464B46FDF7D1FA044659
:102DB0000E460022284BFDF7F7FC03D84FF0FF30FA
:102DC000014607E00022254B20463146FDF72DFC49
:102DD000FDF7D2FC102409E0002C0ADB0A220023B4
:102DE000FDF75EFB039B30321A55641E50EA010268
:102DF000F2D1641C039AC4F111031444119A012AFC
:102E000003D0012208430DD10AE0084304D000207A
:102E10004FF0110B119072E7A3EB0B056D1E0DE047
:102E20005B4504DD4FF0000205F1010504E003DA23
:102E30004FF00002A5F10105002AECD0029811998B
:102E4000C0E90231C0E9004579E700000000144004
:102E50000000F03F300000000000F0430000E03FC1
:102E60002DE9FF4F95B09B468946064600250FE2A7
:102E7000252877D100242746F84A0121059400E04F
:102E8000044316F8013F203B01FA03F01042F7D14A
:102E900030782A2811D06FF02F033078A0F130025B
:102EA000092A16D8059A44F0020402EB820203EBC9
:102EB00042021044761C0590EFE759F8042B059266
:102EC000002A03DA504244F40054059044F002040E
:102ED000761C30782E2816D116F8010F44F0040421
:102EE0002A280DD06FF02F023078A0F13003092B83
:102EF00009D807EB870302EB4303C718761CF3E7F7
:102F000059F8047B761C30786C280FD006DC4C28EE
:102F100017D068280DD06A2814D104E0742810D086
:102F20007A280FD10DE044F400140AE044F4801430
:102F300001E044F440147278824202D104F5801416
:102F4000761C761C307866280BD013DC582877D096
:102F500009DC002875D04528F6D04628F4D047284B
:102F60001AD19DE118E0632835D0642879D065280E
:102F700012D195E1702873D008DC6728F1D0692858
:102F80006FD06E280DD06F2806D1B5E073282CD0F5
:102F9000752875D0782874D05A46179990476D1CBB
:102FA00075E1C4F30250022809D003280DD0D9F8E6
:102FB000001004280DD00D6009F1040967E1D9F86B
:102FC0000010EA17C1E90052F6E7D9F800100D80A9
:102FD000F2E70D70F0E719F8041B8DF800100020DF
:102FE0008DF80100EA46012003E059F804AB4FF0E8
:102FF000FF3061074FF0000102D40DE008F101013C
:103000008846B9420FDA8045F8DB1AF80810002923
:10301000F4D108E008F1010188468142FADB1AF890
:1030200008100029F6D105985B46A0EB0807214659
:103030003846179A00F094FA284400EB080507E098
:103040004DE029E10DE01AF8010B5A461799904717
:10305000B8F10108F7D25B4621463846179A13E1CA
:1030600042E00A220092C4F302524FF0000A022A00
:1030700008D059F804CB032A4FEAEC710AD00DE0CE
:1030800029E02AE009F1070121F00702F2E802C174
:10309000914609E00FFA8CFC4FEAEC71042A03D147
:1030A0004FFA8CFC4FEAEC71002907DA0A4600213E
:1030B000DCF1000C61EB02012D2202E0220504D5B7
:1030C0002B228DF80420012203E0E20701D0202208
:1030D000F7E7904659E00A2102E010220DE01021A6
:1030E0004FF0000A00910BE010224FF0000A44F06C
:1030F00004040827009203E008224FF0000A00921F
:10310000C4F30252022A05D059F804CB0021032A45
:1031100008D009E009F1070121F00702F2E802C135
:10312000914605E01FFA8CFC042A01D10CF0FF0C3B
:103130004FF00008220728D5702806D0009B83F0A6
:10314000100353EA0A0305D00EE040228DF8042054
:10315000012208E05CEA010206D030228DF804204A
:103160008DF8050002229046009B83F0080353EA85
:103170000A030AD15CEA010201D1620705D53022B7
:103180008DF804204FF001087F1E582804D034A089
:1031900003900EA802900DE036A0F9E75346604672
:1031A000009AFDF77DF984460398825C0298401EE0
:1031B000029002705CEA0100F0D1029806A9081A98
:1031C00000F1200A600702D524F4803400E00127D2
:1031D000574502DDA7EB0A0000E0002000EB0A01E2
:1031E000009005984144401A0590E00306D45B46E0
:1031F0002146179A059800F0B3F90544002706E028
:1032000001A85A46C05D179990476D1C7F1C474521
:10321000F6DBE0030CD55B462146179A059800F0D3
:103220009FF9054404E030205A46179990476D1CD9
:103230000099481E00900029F5DC08E002980299E8
:103240005A460078491C0291179990476D1CBAF1B3
:103250000001AAF1010AF1DC65E100000928010082
:1032600030313233343536373839616263646566FC
:1032700000000000303132333435363738394142BE
:10328000434445460000000000F058F90544761C10
:10329000307800287FF4ECAD19B02846BDE8F08FF7
:1032A000620700D4062709F1070222F0070CFCE8A8
:1032B0000223E14603F000485FEA080C02D00FF257
:1032C000702C0DE05FEA045C02D50FF2682C07E079
:1032D0005FEAC47C02D00FF2602C01E0AFF2700C08
:1032E0004FF0FF3823F00043CDF850C065280CD0D4
:1032F00006DC452809D046281DD047283DD13DE0B1
:10330000662818D067287ED138E00021112F01DB14
:10331000112000E0781CCDE9000106A90EA8FFF7F6
:10332000DDFCDDE90F010E9A03910021009207F107
:10333000010A04914DE04FF000400097CDE90110E3
:1033400006A90EA8FFF7CAFCDDE90F0203920E9B47
:1033500011990022DDF80CA00093049211B9791C98
:1033600000EB010AB7EB0A0004D4C0F1FF3007F10B
:10337000010A0490AAEB0700019044E0012F00DA53
:1033800001270021112F01DD112000E03846CDE991
:10339000000106A90EA8FFF7A1FCDDE90F010E9AB6
:1033A0000391002104910092BA4621070CD403999D
:1033B000514500DA8A46BAF1010F05DD009AAAF1FB
:1033C0000101515C302908D0B84202DA10F1040F33
:1033D00006DA0121CDE9011015E0AAF10101E9E7C2
:1033E000002805DC049901440491AAEB000102E0E5
:1033F000411C514500DD8A460499401A401C019049
:103400004FF000400290200704D40198504501DBA2
:10341000CDF8048000208DF84F0002980DF14F0781
:10342000B0F1004F25D02B200E9002984FF00208EB
:1034300000280CDA404202902D200E9007E00A216D
:103440000298FDF717F83031029007F8011DB8F126
:103450000001A8F10108F2DC02980028EFD1791EE2
:103460000E980870307800F0200040F0450007F812
:10347000020D12A8C01B00F107081498007800B1D3
:10348000012000EB0A01019801EBE071059841442D
:10349000401A401E0590E00306D45B462146179A69
:1034A000059800F05DF805441498007818B15A4664
:1034B000179990476D1CE00324D55B462146179A67
:1034C000059800F04DF805441CE00498002807DB3F
:1034D000DDE90301884203DD0098405C179901E0B3
:1034E000179930205A469047049805F10105401C71
:1034F00004900198401E019004D12E205A4617993D
:1035000090476D1CBAF10001AAF1010ADDDC05E06B
:1035100017F8010B5A46179990476D1CB8F1000136
:10352000A8F10108F4DC5B462146179A0598ABE642
:103530002D0000002B000000200000002DE9F041CC
:10354000044600251E461746880404D405E0394683
:103550002020B0476D1C641EF9D52846BDE8F081D7
:103560002DE9F041044600251E469046C80301D5CA
:10357000302700E02027880404D505E0414638467E
:10358000B0476D1C641EF9D52846BDE8F0810A6875
:10359000531C0B601070704770B504460D46E1B2C5
:1035A0000548FFF7F3FA00BF80210348FFF775FADB
:1035B0000028F9D0204670BD0038014000BFFFF759
:1035C0009BF9FDF7E1FEFDF755F9FFF7F9F9FEF775
:1035D0004FFB62B60620FEF7DBFA35480078FEF7AF
:1035E00035FE334803783348027833A13D48FFF76E
:1035F00051FB3C48FFF73AFA2D48007856E0FEF7B9
:10360000E1FE39480078E0B129480078401C28499B
:10361000087008460078052801DD0120087024485C
:103620000078FEF713FE2248027830A12D48FFF7FC
:1036300031FB2C48FFF71AFA1D48007800202A4970
:1036400008701B480078022801D1FFF7A3FA184838
:103650000078062822D2DFE800F021030C0F121BAD
:103660002A48007820B1FDF72BFA0020274908707E
:103670001BE0FDF775FA18E0FDF706FB15E023489F
:10368000007820B1FDF7F8FC0020204908700CE01C
:103690001F48007808B9FDF743FD06E00120044902
:1036A0000870FEF7D3FD00BF00BF00BFA7E7000012
:1036B000280000202900002053797374656D20498B
:1036C0006E697469616C697A65642E204D6F6465FA
:1036D0003A2025642C20436173653A2025640D0A45
:1036E00000000000180100202B00002044697370C6
:1036F0006C617920436173652053776974636865F1
:103700006420546F3A2025640D0A00002A0000202E
:10371000D400002005000000640000003C00000010
:103720001E00000049203C3320435355000300F89D
:10373000E0071F00E0FF1FF8FF7F06000000000009
:103740000000000000000000000000000000181849
:103750001818181808000818000000000000342489
:1037600024240000000000000000000000000016FB
:10377000247F2424247E2424000000000000083E2E
:103780006848681C1612127C10100000000061D2FC
:1037900096740810162949C6000000000000003C7D
:1037A000646438724ACE467F00000000000018189A
:1037B00018180000000000000000000000000408CD
:1037C0001810303030301010180C04000000201099
:1037D00008080C0404040C08181020000000080A53
:1037E000341C6A0800000000000000000000000017
:1037F000001818187F1818180000000000000000BA
:103800000000000000001818083000000000000050
:10381000000000003C00000000000000000000006C
:103820000000000000001818000000000000020660
:10383000040C080810102020400000000000003C8C
:103840006642475B7342663C0000000000000018BF
:10385000784808080808087E000000000000003CC6
:10386000460606040810207E000000000000007CD0
:103870000606043C0202067C000000000000000C6A
:103880001C14246444FF0404000000000000007EB7
:103890006060607E0202067C000000000000001EE6
:1038A000306048764242623C000000000000007E2A
:1038B0000206040C08181030000000000000003C54
:1038C0006242361C6642423C000000000000003CA0
:1038D000664242661A020478000000000000000000
:1038E0000018180000001818000000000000000078
:1038F0000018180000001818083000000000000030
:103900000004183060100C060000000000000000E9
:103910000000007E007E00000000000000000000AB
:1039200000301804060C1020000000000000301CBD
:1039300006060618100010100000000000001C22EF
:103940004141DDB5A5A5AF94C0403C000000001882
:103950001C342426627E43C1000000000000007C6D
:103960004642467C4242427C000000000000001EAD
:10397000204040404040603E000000000000007CCD
:103980004642434343424678000000000000007E68
:103990006060607E6060607E000000000000007E6D
:1039A0006060607E60606060000000000000001EDB
:1039B000604040CE4242623E0000000000000042F3
:1039C0004242427E42424242000000000000007E2D
:1039D000181818181818187E000000000000007C45
:1039E00004040404040444780000000000000042C1
:1039F00044485070584C4442000000000000002031
:103A0000202020202020203E000000000000006236
:103A100066675F5B5BC1C1C100000000000000621F
:103A20006272525A4A4E4646000000000000003CB6
:103A30006243C3C3C343623C000000000000007C3B
:103A40004642424678404040000000000000003CF2
:103A50006243C3C3C343623C180F00000000007CF4
:103A60006662667C6C646662000000000000003ED6
:103A70006040601C0602027C000000000000007F25
:103A80001818181818181818000000000000004234
:103A9000424242424242623C00000000000000C13B
:103AA0004342622624341C1800000000000000C1BC
:103AB000C141495B5B766666000000000000004380
:103AC000663418181C2466C300000000000000C102
:103AD0004266341C18181818000000000000007E10
:103AE00002040C181020607E0000000000001C1072
:103AF000101010101010101010101C0000004020AA
:103B000020101008080C04060200000000003C0C05
:103B10000C0C0C0C0C0C0C0C0C0C3C0000000018D9
:103B20001C246200000000000000000000000000F3
:103B300000000000000000000000FF000000201056
:103B40000000000000000000000000000000000075
:103B5000003C06023E42467A000000000000404061
:103B6000405C62424242427C0000000000000000D3
:103B7000001E20604060203E0000000000000202A5
:103B8000023E62424242663A00000000000000002D
:103B9000003C62427E40603E0000000000000F18C2
:103BA00010107E1010101010000000000000000027
:103BB000003F66426658403E43423C0000004040A1
:103BC000405C62424242424200000000000018187D
:103BD000007808080808087E000000000000040CB7
:103BE000007C040404040404040C780000006060F9
:103BF00060626C7870686462000000000000780801
:103C0000080808080808087E0000000000000000FE
:103C100000764B4B4B4B4B4B00000000000000006C
:103C2000005C62424242424200000000000000008C
:103C3000003C62424342623C000000000000000081
:103C4000005C62424242427C404040000000000072
:103C5000003E62424242663A020202000000000058
:103C6000006E726360606060000000000000000091
:103C7000003E20203C06027C0000000000000010F6
:103C800010FE10101010101E0000000000000000B8
:103C9000004242424242663A00000000000000003A
:103CA00000434266243418180000000000000000A1
:103CB00000C1C15B5A5E66660000000000000000A3
:103CC0000062261C181C2662000000000000000094
:103CD0000043426624341C181830E0000000000045
:103CE000007E060C1810207E0000000000000E1858
:103CF000101010307010101010180E000008080876
:103D00000808080808080808080808000000301813
:103D10000808080C0E080808081830000000000009
:103D2000000000714B0600000000000000000000D1
:103D30000000000000000000000000000000000083
:103D40000000000000000000000000000000000073
:103D50000000000000000000000000000000000063
:103D600000000000000380018001800180018001CB
:103D70008001800180018001800000000003C003F9
:103D8000C000000000000000000000000000000073
:103D900000000000000E700E700E700C300000006D
:103DA0000000000000000000000000000000000013
:103DB0000000000000000000000000000000000003
:103DC000000000000000000618063806307FFE0CD8
:103DD000300C300C300C307FFE0C601C601860180A
:103DE0006000000000000000000000000000000073
:103DF00000000000C000C00FF83CC831C031803D59
:103E0000801F8003F001F8031C030C031C3FF83FE4
:103E1000E0070006000000000000000000000000B5
:103E20000000001C007E0E630C631863307E60008F
:103E3000C001800300077C0EE61CC618C630C660B1
:103E40007C000000000000000000000000000000F6
:103E500000000000000FE01CF0387038701C601F7C
:103E6000C00F003F8C71CC60EC607C70383CFC1F54
:103E7000CE00000000000000000000000000000074
:103E8000000000000003C0018001800180000000EC
:103E90000000000000000000000000000000000022
:103EA0000000000000000000000000000000000012
:103EB000000000003000E001C001800300070006A0
:103EC0000006000E000E000E000E000600070003A4
:103ED00000038001C000E00030000000000000008E
:103EE0000000000C0006000380018001C000E0001B
:103EF0006000600070007000700060006000E00012
:103F0000C00180038006000C0000000000000000DB
:103F10000000000000018011881DB803C007E03DCB
:103F2000BC018801800000000000000000000000CB
:103F30000000000000000000000000000000000081
:103F4000000000000000000000000001800180016E
:103F500080018001807FFE0180018001800180005E
:103F60000000000000000000000000000000000051
:103F70000000000000000000000000000000000041
:103F8000000000000000000000000003C003C001AA
:103F9000C001C003801F00000000000000000000FE
:103FA0000000000000000000000000000000000011
:103FB00000000000000FF000000000000000000002
:103FC00000000000000000000000000000000000F1
:103FD00000000000000000000000000000000000E1
:103FE000000000000000000000000003C003C00348
:103FF000C000000000000000000000000000000001
:104000000000000000001800380030006000E000F0
:10401000C001C001800300030006000E000C001C5C
:104020000018003000000000000000000000000048
:10403000000000000001800FF01C38381C301C709C
:104040007E70EE738E7E0E7C0C300C381C1E780F4A
:10405000E000000000000000000000000000000080
:104060000000000000000007C01FC039C001C001EF
:10407000C001C001C001C001C001C001C03FFC3F80
:10408000FC00000000000000000000000000000034
:10409000000000000003801FF018380038001800EE
:1040A000380038007001E0038007001C003FFC3F2F
:1040B000FC00000000000000000000000000000004
:1040C000000000000007801FF000380038003800B2
:1040D0003007E007F00038001C001C001820F83FF3
:1040E000E0000000000000000000000000000000F0
:1040F0000000000000000000F001B0033007300EA7
:10410000301C30383070307FFE7FFE0030003000D1
:10411000300000000000000000000000000000006F
:10412000000000000000001FF81800180018001818
:10413000001FE000F8001C001C001C003800F01FED
:10414000C0000000000000000000000000000000AF
:104150000000000000000003F80F001C00180030F1
:104160000037F83C3C300C300C380C381C1E380F33
:10417000F00000000000000000000000000000004F
:10418000000000000000003FFC001C001800380088
:1041900070006000E001C001800380070006000E8F
:1041A000000000000000000000000000000000000F
:1041B000000000000003C01FF8381C381C381C1C0D
:1041C000380FF007F01C78381C300C381C3C380FC6
:1041D000F0000000000000000000000000000000EF
:1041E000000000000003801FF03838301C701C7085
:1041F0000C380C1FFC0FCC001C001800701FE01FB7
:10420000800000000000000000000000000000002E
:104210000000000000000000000000000003C003D8
:10422000C00180000000000000000003C003C003C4
:10423000C0000000000000000000000000000000BE
:104240000000000000000000000000000003C003A8
:10425000C00180000000000000000003C003C00196
:10426000C001C003800F000000000000000000003B
:104270000000000000000000000000003800F00115
:10428000C007001E0038000E00078001C00070004B
:1042900030000000000000000000000000000000EE
:1042A000000000000000000000000000000000000E
:1042B000003FFC000000003FFC3FFC00000000004D
:1042C00000000000000000000000000000000000EE
:1042D00000000000000000000000001C000F0003B0
:1042E0008001E00078001C007001E003800E000CEB
:1042F00000000000000000000000000000000000BE
:1043000000000000000FC000F00038003800380046
:104310003803F0038003000300000000000780075B
:10432000800000000000000000000000000000000D
:1043300000000000E007F80C0C180630067003635C
:10434000F36633C673CC63CC62CC66CCE6C7FCE0C4
:10435000006000700038101FF00000000000000036
:104360000000000000000003C007E006E00E700E31
:10437000700C301C3818183FFC3FFC700E600EE0CB
:104380000700000000000000000000000000000026
:10439000000000000000003FF03838381C381C389E
:1043A000383FF03FF8381C380C380C381C3FF83FC9
:1043B000E00000000000000000000000000000001D
:1043C000000000000000E007FC1E04380038003048
:1043D00000700070007000300038003C001F9C0727
:1043E000FC000000000000000000000000000000D1
:1043F000000000000000003FF03078301C300C302E
:104400000E300E300E300E300E301C30383FF03F84
:10441000C0000000000000000000000000000000DC
:10442000000000000000001FF81800180018001815
:10443000001FF81FF818001800180018001FF81FB8
:10444000F800000000000000000000000000000074
:10445000000000000000001FF818001800180018E5
:10446000001FF81FF818001800180018001800188E
:10447000000000000000000000000000000000003C
:10448000000000000000F007FC1E0438003000703F
:1044900000700070FC700C700C300C380C1F1C0786
:1044A000FC00000000000000000000000000000010
:1044B00000000000000000300C300C300C300C30DC
:1044C0000C3FFC3FFC300C300C300C300C300C300E
:1044D0000C000000000000000000000000000000D0
:1044E000000000000000003FFC018001800180010D
:1044F000800180018001800180018001803FFC3FBC
:10450000FC000000000000000000000000000000AF
:10451000000000000000001FF000300030003000FC
:10452000300030003000300030003000701DE01FDF
:10453000C0000000000000000000000000000000BB
:1045400000000000000000381C387038E039C03B23
:10455000803F003F003B8039C038E0387038383841
:104560001C0000000000000000000000000000002F
:10457000000000000000001C001C001C001C001CAF
:10458000001C001C001C001C001C001C001FFC1F49
:10459000FC0000000000000000000000000000001F
:1045A00000000000000000381C7C3C6C3E6E6E6613
:1045B0006E66CE63C66386618660066006600660CE
:1045C00006000000000000000000000000000000E5
:1045D000000000000000003C0C3C0C3E0C360C338C
:1045E0000C338C318C31CC30EC306C307C303C3046
:1045F0001C0000000000000000000000000000009F
:10460000000000000001C00FF81C3C381C700E7048
:104610000E60066006700E700E700C381C1E780F4F
:10462000E0000000000000000000000000000000AA
:10463000000000000000003FF0383C381C380C3807
:104640000C381C38783FE038003800380038003823
:10465000000000000000000000000000000000005A
:10466000000000000001C00FF81C3C381C700E70E8
:104670000E60066006700E700E700C381C1E780FEF
:10468000E0018001C000FF003C00000000000000CD
:10469000000000000000003FF038383818381838A3
:1046A0003838F03FC038E0387038383838381C387F
:1046B0000E000000000000000000000000000000EC
:1046C000000000000001E00FF83800380038003C1E
:1046D000001F8003F00078001C001C001C38783F8D
:1046E000E0000000000000000000000000000000EA
:1046F000000000000000007FFE01800180018001B9
:1047000080018001800180018001800180018001A1
:104710008000000000000000000000000000000019
:1047200000000000000000300C300C300C300C3069
:104730000C300C300C300C300C300C381C1C380F8A
:10474000F000000000000000000000000000000079
:1047500000000000000000E006700E700E381C38EB
:104760001C1C181C380C300E70066007E003C003D8
:10477000C000000000000000000000000000000079
:104780000000000000000060066006600660066130
:1047900086638673C673CE766C366C3C3C3C3C3884
:1047A0001C000000000000000000000000000000ED
:1047B00000000000000000301C38181C380E700784
:1047C000E003C003C007E00E701C381838381C70B6
:1047D0000E000000000000000000000000000000CB
:1047E00000000000000000700E700C381C1C380E19
:1047F00070066007E003C001800180018001800134
:104800008000000000000000000000000000000028
:10481000000000000000003FFC001C003800700099
:10482000E001C0038007000E000C0018003FFC3FB1
:10483000FC0000000000000000000000000000007C
:1048400000000007F007F00600060006000600065C
:104850000006000600060006000600060006000628
:104860000006000600060007F0000000000000003F
:10487000000000000018001C000C000600070003E8
:10488000000380018001C000C000600070003000A3
:10489000380018000C0000000000000000000000BC
:1048A0000000000FE00FE0006000600060006000AA
:1048B00060006000600060006000600060006000F8
:1048C000600060006000600FE00000000000000079
:1048D0000000000000000003C006C006600C301895
:1048E00018301C0000000000000000000000000064
:1048F00000000000000000000000000000000000B8
:1049000000000000000000000000000000000000A7
:104910000000000000000000000000000000000097
:1049200000000000000000FFFF0000000000000089
:1049300000000000001E00038000000000000000D6
:104940000000000000000000000000000000000067
:104950000000000000000000000000000000000057
:10496000000000000000000000000000001FF01028
:1049700038001C001C0FFC1C1C381C381C3CFC1F85
:10498000DC0000000000000000000000000000004B
:10499000000000000038003800380038003BF83EC6
:1049A0001C3C1C380C380C380C380C381C3C781F5C
:1049B000E000000000000000000000000000000017
:1049C0000000000000000000000000000007F80EDA
:1049D000001C0038003800380038001C000F180791
:1049E000F8000000000000000000000000000000CF
:1049F0000000000000001C001C001C001C0FFC1C20
:104A00001C381C301C301C301C301C383C1CFC0F6B
:104A10009C000000000000000000000000000000FA
:104A2000000000000000000000000000000FF01C6B
:104A300038381C300C3FFC3000300038001E0C07AA
:104A4000FC0000000000000000000000000000006A
:104A5000000000003C01FE03800300030003007F10
:104A6000FC7FFC03000300030003000300030003BA
:104A70000000000000000000000000000000000036
:104A8000000000000000000000000000000FFE1CFD
:104A9000383818381818381FF03B8030003FF01FA6
:104AA000FC300E700E381C1FF800000000000000E3
:104AB000000000000038003800380038003BF83EA5
:104AC000383C1C381C381C381C381C381C381C3826
:104AD0001C000000000000000000000000000000BA
:104AE000000000018003C003C0000000001FC001DF
:104AF000C001C001C001C001C001C001C001C03F70
:104B0000FC000000000000000000000000000000A9
:104B1000000000002000700070000000003FF00066
:104B20007000700070007000700070007000700005
:104B3000700070007020E03FC00000000000000026
:104B400000000000001800180018001800183C1899
:104B50007018E01B801F001B8019E01870183818AF
:104B60001C00000000000000000000000000000029
:104B700000000000001FC001C001C001C001C00151
:104B8000C001C001C001C001C001C001C001C03FDF
:104B9000FC00000000000000000000000000000019
:104BA000000000000000000000000000006F3C79E1
:104BB000EE71CE718E718E718E718E718E718E715D
:104BC0008E00000000000000000000000000000057
:104BD000000000000000000000000000003BF83E64
:104BE000383C1C381C381C381C381C381C381C3805
:104BF0001C00000000000000000000000000000099
:104C0000000000000000000000000000000FF01C89
:104C10003C381C700E700E700E700C381C1E780F15
:104C2000E0000000000000000000000000000000A4
:104C3000000000000000000000000000003BF83E03
:104C40001C3C1C380C380C380C380C381C3C783F99
:104C5000E038003800380038000000000000000094
:104C6000000000000000000000000000000FFC1C1D
:104C70001C381C301C301C301C301C383C1CFC0FF9
:104C80009C001C001C001C001C0000000000000018
:104C90000000000000000000000000000019F81FE4
:104CA0001C1C0C180E18001800180018001800180A
:104CB00000000000000000000000000000000000F4
:104CC000000000000000000000000000000FF81CC1
:104CD0000018001E000FC001F80018001818381F37
:104CE000F0000000000000000000000000000000D4
:104CF000000000000000000600060006007FFC0621
:104D000000060006000600060006000700078401F2
:104D1000FC00000000000000000000000000000097
:104D200000000000000000000000000000381C38F7
:104D30001C381C381C381C381C381C383C1CFC0F18
:104D4000DC00000000000000000000000000000087
:104D500000000000000000000000000000700C389F
:104D60001C38181C380C300E70066007E003C003B6
:104D7000C000000000000000000000000000000073
:104D8000000000000000000000000000006006605D
:104D9000066186738E73CC33CC366C366C3C3C3CEF
:104DA00038000000000000000000000000000000CB
:104DB00000000000000000000000000000381C1C83
:104DC000380E7007E003C003C007E00E701C3838CF
:104DD0001E000000000000000000000000000000B5
:104DE00000000000000000000000000000700C380F
:104DF0001C38181C380C300E70066007E003C00326
:104E0000C0038007000E007C0000000000000000CE
:104E1000000000000000000000000000001FF8007B
:104E200038007000E001C0038007000C001FFC3F49
:104E3000FC00000000000000000000000000000076
:104E4000000000007801F8038003800380038003E2
:104E50008003003F003E00030003800380038003C3
:104E6000800380038001C000F80000000000000102
:104E7000800180018001800180018001800180012A
:104E8000800180018001800180018001800180011A
:104E9000800180018001800180000000000000008E
:104EA0000000001E001F80018001C001C001C00180
:104EB000C000C000FC007C00C001C001C001C001F6
:104EC000C001C001C003801F0000000000000000FE
:104ED00000000000000000000000000000000000D2
:104EE000001C003F0671CE60FC00000000000000C6
:104EF00000000000000000000000000000000000B2
:104F000000000000000000000000000000000000A1
:104F10000000000000000000000000000000000091
:104F20000000000000000000000000000000000081
:104F30000000000000000000000000000000000071
:104F40000000000000000000000000000000000061
:104F50000000000000000000000000000000000051
:104F600000000000000000000000000000003C0005
:104F7000003C00003C00003C00003C00003C000005
:104F80003C00003C00003C00003C00003C00003CB9
:104F900000003C00003C00000000000000003C005D
:104FA000007E00003C000000000000000000000047
:104FB00000000000000000000000000000000000F1
:104FC0000000000000000000000000000003C3E03B
:104FD00003C3E003C3C003C3C003C3C003C3C00310
:104FE000C1C0000000000000000000000000000040
:104FF00000000000000000000000000000000000B1
:1050000000000000000000000000000000000000A0
:105010000000000000000000000000000000000090
:105020000000000000000000000000000000000080
:1050300000000001E0E001C0E001C0E001C0E03F8D
:10504000FFFE3FFFFE03C1C00381C00381C0038197
:10505000C07FFFFC7FFFFC0783800703800703807E
:105060000703800707800000000000000000000028
:105070000000000000000000000000000000000030
:1050800000000000000000000000000700000F000A
:10509000000E0001FFF007FFF01F0E001E1E001E95
:1050A0001C001E1C000FDC0007FC0000FF80003FFE
:1050B000F00038F800387800783C0070783071F8EB
:1050C0003FFFE01FFF0000E00000E00000E0000004
:1050D00000000000000000000000000000000000D0
:1050E000000000000000000000000000000F800F22
:1050F0003FE01E78703C7070707070E07071C03F5F
:10510000E3801FC700000E00001C0000780000F0C4
:10511000F001E7FC03CF0E078E0E0F0E0E1E0E0ED3
:105120003C07BC7003F80000000000000000000015
:10513000000000000000000000000000000000006F
:10514000000000000000000000000000000000005F
:1051500001FF0007FF800F03C00F03C00F03C00F44
:105160000780079F0003FE0003F0000FF83C3E7C21
:105170003C3C1F3C780FF87807F87C01F03E03F8C0
:105180001FFFFC07FE1F00000000000000000000E1
:10519000000000000000000000000000000000000F
:1051A00000000000000000000000000000003E00C1
:1051B000003C00003C00003C00003C00003C0000C3
:1051C0003C000000000000000000000000000000A3
:1051D00000000000000000000000000000000000CF
:1051E00000000000000000000000000000000000BF
:1051F00000000000000000000000000000000000AF
:10520000000000000000000000000000800001C05D
:10521000000780000F00001E00003C000078000026
:10522000F00000E00001E00001E00001C00003C068
:105230000003C00001C00001E00001E00000F00038
:1052400000F000007800003C00001E00000F00008D
:1052500007C00001C00000000000000000000000C6
:105260000000000000000000000000000003C0007B
:1052700001E00000F000007C00003E00001E000085
:105280000F000007800007800003800003C00003B8
:10529000C00003C00003C000038000078000078037
:1052A000000F00001E00003C0000780000F000012C
:1052B000E00003800000000000000000000000008B
:1052C00000000000000000000000000000001C00C2
:1052D000001C000018000F18F007DBE0007F000042
:1052E000FF0007DBE00E1870001800001C00001C17
:1052F00000000000000000000000000000000000AE
:10530000000000000000000000000000000000009D
:10531000000000000000000000000000000000008D
:10532000000000000000000000000000000000007D
:10533000000000000000000000000000003C000031
:105340003C00003C00003C00003C00003C003FFFF3
:10535000FC3FFFFC003C00003C00003C00003C0027
:10536000003C000000000000000000000000000001
:10537000000000000000000000000000000000002D
:10538000000000000000000000000000000000001D
:10539000000000000000000000000000000000000D
:1053A00000000000000000000000000000000000FD
:1053B00000000000000000000000007C00007E00F3
:1053C000007E00003E00001E00003C0000F80007C8
:1053D000E0000400000000000000000000000000E9
:1053E00000000000000000000000000000000000BD
:1053F00000000000000000000000000000000000AD
:10540000000000000000000000000000000003FF9A
:10541000E003FFE0000000000000000000000000CA
:10542000000000000000000000000000000000007C
:10543000000000000000000000000000000000006C
:10544000000000000000000000000000000000005C
:10545000000000000000000000000000000000004C
:10546000000000000000000000000000000000003C
:1054700000000000000000000000007C0000FE00B2
:1054800000FE00007E0000000000000000000000A0
:10549000000000000000000000000000000000000C
:1054A0000000000000000000000000000000007884
:1054B0000000F00000E00001E00003C000038000F5
:1054C0000780000F00000E00001E00003C000038A6
:1054D0000000700000F00000E00001C00003C00008
:1054E0000780000700000F00001E00001C000000E5
:1054F00000000000000000000000000000000000AC
:10550000000000000000000000000000000000009B
:1055100000000001FFC007FFE00F00F01E00781E32
:10552000003C3C00FC3C07FC3C1FBC3C7C1C3DF0B0
:105530003C3FC03C3F003C1E00381E00780F80F00E
:1055400007FFE001FF8000000000000000000000F5
:10555000000000000000000000000000000000004B
:10556000000000000000000000000000000000003B
:10557000000000007E0003FE001FDE000E1E000083
:105580001E00001E00001E00001E00001E00001E67
:1055900000001E00001E00001E00001E00001E0075
:1055A0000FFFF80FFFF800000000000000000000EF
:1055B00000000000000000000000000000000000EB
:1055C00000000000000000000000000000000000DB
:1055D00000000003FF800FFFE00E01F00000F0006C
:1055E00000F00000F00000F00001E00003C0000F38
:1055F00080003E00007C0001F00003C0000F80002E
:105600001FFFFC1FFFFC0000000000000000000066
:10561000000000000000000000000000000000008A
:10562000000000000000000000000000000000007A
:105630000000000FFF800FFFE00001E00000F0001D
:1056400000F00001E00003C001FF0001FFC0000303
:10565000F00000780000780000780000780001F089
:105660000FFFC00FFF00000000000000000000005E
:10567000000000000000000000000000000000002A
:10568000000000000000000000000000000000001A
:10569000000000000FC0001FC0003FC0007BC00022
:1056A000F3C001E3C003C3C00783C00F03C01C03E2
:1056B000C03803C07FFFFE7FFFFE0003C00003C0B1
:1056C0000003C00003C00000000000000000000054
:1056D00000000000000000000000000000000000CA
:1056E00000000000000000000000000000000000BA
:1056F0000000000FFFE00FFFE00F00000F00000FA1
:1057000000000F00000F00000FFF800FFFE00000FF
:10571000F00000780000780000780000F00003E05E
:105720000FFFC00FFE00000000000000000000009E
:105730000000000000000000000000000000000069
:105740000000000000000000000000000000000059
:10575000000000003FF001FFF003E0000780000FB1
:1057600000001E00001E1F001FFFE01FC1F81E00EA
:10577000781E003C1E003C1E003C0F00780F80F895
:1057800007FFE001FF8000000000000000000000B3
:105790000000000000000000000000000000000009
:1057A00000000000000000000000000000000000F9
:1057B0000000001FFFFC1FFFFC0000780000F0004D
:1057C00000E00001E00003C0000780000F00000FB0
:1057D00000001E00003C0000780000F00001F00016
:1057E00001E00003C0000000000000000000000015
:1057F00000000000000000000000000000000000A9
:105800000000000000000000000000000000000098
:1058100000000003FFE00FE3F00F00781E00781E89
:1058200000780F00F007E3E001FF8001FF8007E749
:10583000E00F00F81E00781E003C1E007C1F00F8E0
:105840000FFFF003FFC00000000000000000000098
:105850000000000000000000000000000000000048
:105860000000000000000000000000000000000038
:1058700000000003FF800FC7E01E00F01E00783C10
:1058800000783C00783C00381E00780FEFF807FFE6
:10589000B80000780000780000F00001E0000FC0C0
:1058A0000FFF000FF00000000000000000000000EB
:1058B00000000000000000000000000000000000E8
:1058C00000000000000000000000000000000000D8
:1058D00000000000000000000000000000000000C8
:1058E0007E00007E00007E00001800000000000026
:1058F00000000000000000000000003C00007E00EE
:10590000007E00003E0000000000000000000000DB
:105910000000000000000000000000000000000087
:105920000000000000000000000000000000000077
:105930000000000000000000000000000000000067
:105940007E00007E00007E000018000000000000C5
:1059500000000000000000000000003E00007E008B
:10596000007F00001F00001E00001E0000FC00075A
:10597000F000040000000000000000000000000033
:105980000000000000000000000000000000000017
:105990000000000000000000000000400001E000E6
:1059A00007C0001F00007E0001F80003E0000F8028
:1059B000000F800003E00000F800003E00000F80B0
:1059C0000003E00000E00000000000000000000014
:1059D00000000000000000000000000000000000C7
:1059E00000000000000000000000000000000000B7
:1059F00000000000000000000000000000000000A7
:105A000000000000000000001FFFF8000000000080
:105A1000000000001FFFF81FFFF80000000000005A
:105A20000000000000000000000000000000000076
:105A30000000000000000000000000000000000066
:105A40000000000000000000000000000000000056
:105A500000000000000000000000000007800003BC
:105A6000E00000F800003E00000F800003E00000AE
:105A7000F80001F00007C0001F00007C0001F000EA
:105A800007C000030000000000000000000000004C
:105A90000000000000000000000000000000000006
:105AA0000000000000000000000000000001C00035
:105AB00001FE00007F800007C00001E00000F00050
:105AC00000F00001F00003E0007FC0007E000070E5
:105AD0000000700000700000000000000000F800EE
